S0120000556C747261536F6E69632E737265630E
S113000045C0000060C000005EC000005CC000008D
S11300105AC0000058C0000056C00000B4C0000020
S1130020C3C0000050C100008CC100004CC00000DF
S11300304AC0000048C0000046C0000044C00000A0
S113004042C0000040C000003EC000003CC00000B0
S11300503AC0000038C0000036C0000034C00000C0
S113006032C0000030C000002EC000002CC00000D0
S11300702AC0000028C0000026C0000024C00000E0
S113008022C0000020C000001EC0000011241FBEBA
S1130090CFEFD0E1DEBFCDBF11E0A0E0B1E0ECEFE7
S11300A0FBE000E00BBF02C007900D92A431B10742
S11300B0D9F721E0A4E1B1E001C01D92AB32B2074F
S11300C0E1F77FD199C59CCF85B3886085BB8FEC60
S11300D097E00197F1F700C0000085B3877F85BBE7
S11300E08FEC97E00197F1F700C000000895CF93DB
S11300F0C82F85BB85B3846085BBE6DFC295C07F0E
S1130100C5BB85B3846085BBDFDFCF91089515BA85
S1130110DBDF81E085BBD8DF15BAD6DF82E085BBA3
S1130120D3CF0895982F907F95BB95B3986095BBD6
S1130130EFECF7E03197F1F700C0000094E095BBD5
S1130140F0E18F9FC001112485BB85B3886085BB16
S11301508FEC97E00197F1F700C0000015BA0895FD
S11301608058E0CF0895CF93DF93EC01D0DF80E097
S113017090E0F6DF02C0BBDF219688818111FBCFBE
S1130180DF91CF9108951F920F920FB60F92112411
S11301908F9385B5826085BD82E088BB8F910F9077
S11301A00FBE0F901F9018951F920F920FB60F92CB
S11301B011240BB60F922F933F934F935F936F933A
S11301C07F938F939F93AF93BF93EF93FF9318BA4B
S11301D085B5887F85BD8FEF84BD80911C0190918A
S11301E01D0120911E0130911F0140912001509169
S11301F02101609122017091230180931401909355
S11302001501209316013093170140931801509360
S1130210190160931A0170931B0110921C01109232
S11302201D0110921E0110921F01109220011092C4
S113023021011092220110922301109224017F9334
S11302406F935F934F933F932F939F938F9386E086
S113025091E09F938F93809126018F938091250144
S11302608F93EFD154DF80912501909126017BDF9C
S11302701092140110921501109216011092170198
S1130280109218011092190110921A0110921B0178
S11302908DB79EB70C960FB6F8949EBF0FBE8DBF58
S11302A0FF91EF91BF91AF919F918F917F916F914A
S11302B05F914F913F912F910F900BBE0F900FBE06
S11302C00F901F9018951F920F920FB60F92112442
S11302D02F933F934F935F936F937F938F939F934A
S11302E0AF9320911C0130911D0140911E0150914A
S11302F01F01609120017091210180912201909150
S11303002301A1E071D020931C0130931D0140937F
S11303101E0150931F01609320017093210180936B
S1130320220190932301AF919F918F917F916F91BF
S11303305F914F913F912F910F900FBE0F901F909F
S113034018951F920F920FB60F9211242F933F937B
S11303504F935F936F937F938F939F93AF9320916A
S11303601C0130911D0140911E0150911F016091AB
S11303702001709121018091220190912301A1E03B
S113038033D020931C0130931D0140931E015093E0
S11303901F016093200170932101809322019093A7
S11303A023018FEF84BDAF919F918F917F916F91C6
S11303B05F914F913F912F910F900FBE0F901F901F
S11303C018958FEF90E01CD090932601809325011F
S11303D081E08ABB8FEF87BB81E08BBB8AE18A9582
S11303E0F1F700C01BBAF8CF0024A7FD00942A0F30
S11303F0301D401D501D601D701D801D901D0895F1
S11304000F931F93CF93DF938230910510F482E012
S113041090E0E0912901F0912A0120E030E0A0E091
S1130420B0E0309719F1408151810281138148175E
S11304305907C8F08417950769F4109731F012969C
S11304400C93129713961C9327C0009329011093C1
S11304502A0122C02115310519F04217530718F457
S11304609A01BD01EF01DF01F801DBCF2115310550
S1130470F9F0281B390B2430310580F48A819B81E3
S11304806115710521F0FB019383828304C090936D
S11304902A0180932901FE01329644C0FE01E20F35
S11304A0F31F8193919322503109398328833AC0F1
S11304B02091270130912801232B41F4209102013E
S11304C030910301309328012093270120910001EA
S11304D0309101012115310541F42DB73EB740910A
S11304E0040150910501241B350BE0912701F09183
S11304F02801E217F307A0F42E1B3F0B2817390736
S113050078F0AC014E5F5F4F2417350748F04E0F6B
S11305105F1F50932801409327018193919302C058
S1130520E0E0F0E0CF01DF91CF911F910F910895AA
S1130530CF93DF93009709F481C0FC0132971382B3
S11305401282A0912901B0912A01109781F420818F
S11305503181820F931F20912701309128012817A0
S1130560390751F5F0932801E093270167C0ED01A5
S113057020E030E0CE17DF0740F44A815B819E0122
S113058041155105F1F0EA01F5CFD383C2834081CF
S11305905181840F951FC817D90759F4888199810F
S11305A0840F951F0296918380838A819B81938314
S11305B082832115310529F4F0932A01E09329015E
S11305C03DC0E901FB83EA8349915991C40FD51FCA
S11305D0EC17FD0761F480819181840F951F0296C9
S11305E0E90199838883828193819B838A83E0E0F4
S11305F0F0E012968D919C911397009719F0FD01EC
S1130600DC01F7CF8D919C9111979D012E5F3F4F97
S1130610820F931F20912701309128012817390751
S113062069F4309729F410922A011092290102C02A
S113063013821282B0932801A0932701DF91CF91F6
S113064008950F931F93CF93DF93CDB7DEB72E9703
S11306500FB6F894DEBF0FBECDBF0D891E8986E0AC
S11306608C831A8309838FEF9FE79E838D83AE016A
S1130670475E5F4F6F89788DCE01019610D0EF8170
S1130680F885E00FF11F10822E960FB6F894DEBFA6
S11306900FBECDBFDF91CF911F910F9108952F927F
S11306A03F924F925F926F927F928F929F92AF92FE
S11306B0BF92CF92DF92EF92FF920F931F93CF934B
S11306C0DF93CDB7DEB72B970FB6F894DEBF0FBE1E
S11306D0CDBF6C017B018A01FC01178216828381E4
S11306E081FFBFC1CE0101963C01F6019381F70160
S11306F093FD859193FF81917F01882309F4ADC116
S1130700853239F493FD859193FF81917F01853280
S113071021F4B60190E0D6D1E8CF912C212C312CD4
S1130720FFE1F315D8F08B3279F038F4803279F0A8
S11307308332A1F4232D20611DC08D3261F08033FA
S113074069F4232D216016C0832D8260382EE32D99
S1130750E4603E2E2AC0F32DF8601DC037FC2DC086
S113076020ED280F2A3040F08E32B9F436FC75C1E2
S1130770232D2064322E19C036FE06C08AE0989ECE
S1130780200D1124922E11C0EAE02E9E200D11247A
S1130790222EF32DF0623F2E08C08C3621F4832DD7
S11307A08068382E02C0883641F4F70193FD8591A4
S11307B093FF81917F018111B3CF982F9F7D955431
S11307C0933028F40C5F1F4F9FE399830DC0833649
S11307D031F0833771F0833509F055C020C0F8013A
S11307E0808189830E5F1F4F88248394912C530149
S11307F012C02801F2E04F0E511CF801A080B18014
S113080036FE03C0692D70E002C06FEF7FEFC501B3
S11308104ED14C018201F32DFF773F2E15C02801E4
S113082022E0420E511CF801A080B18036FE03C0C4
S1130830692D70E002C06FEF7FEFC5012DD14C012F
S1130840F32DF0683F2E820133FC19C0822D90E015
S113085088169906A0F4B60180E290E033D12A9478
S1130860F5CFF50137FC859137FE81915F01B60123
S113087090E028D121102A9421E0821A9108811451
S1130880910479F7E1C0843611F0893639F5F8011D
S113089037FE07C060817181828193810C5F1F4F95
S11308A008C060817181072E000C880B990B0E5FC4
S11308B01F4FF32DFF763F2E97FF09C0909580952B
S11308C0709561957F4F8F4F9F4FF0683F2E2AE0C0
S11308D030E0A30133D1882E861844C0853731F423
S11308E0232D2F7EB22E2AE030E025C0932D997F50
S11308F0B92E8F36C1F018F4883579F0AEC0803740
S113090019F0883721F0A9C0E92FE061BE2EB4FEAA
S11309100DC0FB2DF460BF2E09C034FE0AC0292F80
S11309202660B22E06C028E030E005C020E130E0A9
S113093002C020E132E0F801B7FE07C06081718196
S1130940828193810C5F1F4F06C06081718180E0BA
S113095090E00E5F1F4FA301F1D0882E8618FB2D67
S1130960FF773F2E36FE0DC0232D2E7FA22E891435
S113097058F434FE0BC032FC09C0832D8E7EA82EA1
S113098005C0B82CA32C03C0B82C01C0B92CA4FEFC
S11309900FC0FE01E80DF11D8081803321F49A2DF2
S11309A0997EA92E09C0A2FE06C0B394B39404C0D4
S11309B08A2D867809F0B394A3FC10C0A0FE06C06B
S11309C0B21480F4280C922C9B180DC0B21458F465
S11309D0B60180E290E076D0B394F8CFB21418F464
S11309E02B1802C0982C212CA4FE0FC0B60180E362
S11309F090E068D0A2FE16C0A1FC03C088E790E096
S1130A0002C088E590E0B6010CC08A2D867851F0CA
S1130A10A1FE02C08BE201C080E2A7FC8DE2B60118
S1130A2090E050D0891430F4B60180E390E04AD0CD
S1130A309A94F8CF8A94F301E80DF11D8081B601F0
S1130A4090E040D08110F6CF222009F44ECEB601BA
S1130A5080E290E037D02A94F7CFF601868197811F
S1130A6002C08FEF9FEF2B960FB6F894DEBF0FBE38
S1130A70CDBFDF91CF911F910F91FF90EF90DF9049
S1130A80CF90BF90AF909F908F907F906F905F902A
S1130A904F903F902F900895FC0105906150704055
S1130AA00110D8F7809590958E0F9F1F0895FC0133
S1130AB06150704001900110D8F7809590958E0F89
S1130AC09F1F08950F931F93CF93DF93FB012381FF
S1130AD021FD03C08FEF9FEF2CC022FF16C046817B
S1130AE05781248135814217530744F4A081B18191
S1130AF09D012F5F3F4F318320838C932681378163
S1130B002F5F3F4F3783268314C08B01EC01FB0119
S1130B100084F185E02D0995892BE1F6D80116961C
S1130B208D919C911797019617969C938E93169787
S1130B30CE01DF91CF911F910F910895FA01AA2759
S1130B40283051F1203181F1E8946F936E7F6E5F0C
S1130B507F4F8F4F9F4FAF4FB1E03ED0B4E03CD0BA
S1130B60670F781F891F9A1FA11D680F791F8A1F9D
S1130B70911DA11D6A0F711D811D911DA11D20D004
S1130B8009F468943F912AE0269F11243019305DBE
S1130B903193DEF6CF010895462F4770405D4193AF
S1130BA0B3E00FD0C9F7F6CF462F4F70405D4A33FC
S1130BB018F0495D31FD4052419302D0A9F7EACFC4
S1130BC0B4E0A6959795879577956795BA95C9F7F3
S1130BD000976105710508959B01AC010A2E0694E6
S1130BE05795479537952795BA95C9F7620F731F9F
S10F0BF0841F951FA01D0895F894FFCFEA
S1130BFC00002B01200044697374616E63653A2014
S1070C0C2564000057
S9030000FC
