S0120000556C747261536F6E69632E737265630E
S113000045C0000061C000005FC000005DC000008A
S11300105BC0000059C0000057C00000CDC0000004
S1130020E3C0000051C000002FC100004DC000001B
S11300304BC0000049C0000047C000004BC1000095
S113004043C0000041C000003FC000003DC00000AC
S11300503BC0000039C0000037C0000035C00000BC
S113006033C0000031C000002FC000002DC00000CC
S11300702BC0000029C0000027C0000025C00000DC
S113008023C0000021C000001FC0000011241FBEB7
S1130090CFEFD0E1DEBFCDBF11E0A0E0B1E0EAE5F3
S11300A0F1E100E00BBF02C007900D92AA30B10746
S11300B0D9F721E0AAE0B1E001C01D92A932B2074C
S11300C0E1F7CFD10C94AB089BCF85B3886085BB97
S11300D08FEC97E00197F1F700C0000085B3877FAC
S11300E085BB8FEC97E00197F1F700C000000895FD
S11300F0CF93C82F85BB85B3846085BBE6DFC295EB
S1130100C07FC5BB85B3846085BBDFDFCF91089515
S1130110CF938FEF84BB15BAC0E2C5BBD6DFC5BB96
S1130120D4DF80E885BBD1DF15BACFDF80EF85BB94
S1130130CCDF15BACADF80E685BBC7DFCF9108954F
S113014015BAC3DF81E085BBC0DF15BABEDF82E02C
S113015085BBBBCF0895982F907F95BB95B39860CE
S113016095BBEFECF7E03197F1F700C0000094E0A5
S113017095BBF0E18F9FC001112485BB85B38860D6
S113018085BB8FEC97E00197F1F700C0000015BA2A
S113019008958058E0CF0895CF93DF93EC01D0DF2A
S11301A080E090E0F6DF02C0A3DF21968881811110
S11301B0FBCFDF91CF9108951F920F920FB60F924C
S11301C011248F9314BC10921F01109220011092DD
S11301D021011092220185B5816085BD8F910F9018
S11301E00FBE0F901F9018951F920F920FB60F928B
S11301F011240BB60F922F933F934F935F936F93FA
S11302007F938F939F93AF93BF93EF93FF9385B5A2
S1130210887F85BDE4B520911F0130912001409174
S1130220210150912201AFEFB0E074D36E0F711D24
S1130230811D911D14BC10921F0110922001109277
S113024021011092220101D229E23CE349EE53E458
S11302505DD160931B0170931C0180931D019093E9
S11302601E01FF91EF91BF91AF919F918F917F916B
S11302706F915F914F913F912F910F900BBE0F9013
S11302800FBE0F901F9018951F920F920FB60F92EA
S113029011248F939F93AF93BF9380911F019091EB
S11302A02001A0912101B09122010196A11DB11D4F
S11302B080931F0190932001A0932101B093220108
S11302C014BCBF91AF919F918F910F900FBE0F906F
S11302D01F9018951F920F920FB60F9211240BB610
S11302E00F928F929F92AF92BF92CF92DF92EF9232
S11302F0FF922F933F934F935F936F937F938F93CB
S11303009F93AF93BF93EF93FF93C0901B01D09043
S11303101C01E0901D01F0901E0120E030E048EC4B
S113032052E4C701B6016BD218160CF460C02091D8
S11303301201309113014091140150911501609103
S1130340160170911701809118019091190177D1CC
S11303504B015C0120E030E040E85EE3C701B601F8
S113036052D29B01AC01C501B40149D21816ECF478
S113037080911A01882329F010921A0181E088BB28
S113038004C018BA81E080931A01109212011092ED
S1130390130110921401109215011092160110927B
S11303A01701109218011092190120911201309135
S11303B0130140911401509115016091160170913F
S11303C017018091180190911901A1E0ADD22093F9
S11303D0120130931301409314015093150160935B
S11303E01601709317018093180190931901FF91DE
S11303F0EF91BF91AF919F918F917F916F915F9199
S11304004F913F912F91FF90EF90DF90CF90BF904D
S1130410AF909F908F900F900BBE0F900FBE0F90D8
S11304201F90189520E030E008C0EFECF7E031971A
S1130430F1F700C000002F5F3F4F28173907ACF3D6
S1130440089587B7806487BF789415BC08958BE0BE
S113045083BF87B7826087BF84E681BF8FEF87BB86
S113046008958FEF90E07BD2909324018093230131
S113047081E08ABB81E090E0D5DF8AB7806B8ABFD8
S113048089B7806C89BFDDDFE2DF42DE84E68093DA
S11304900A0110920B0110920C0110920D0110929E
S11304A00E0110920F01109210011092110188ECAC
S11304B090E0B8DF81E08BBB8AE18A95F1F700C058
S11304C01BBA60911B0170911C0180911D019091D8
S11304D01E0184D07F936F9386E091E09F938F9366
S11304E0809124018F93809123018F9359D380911C
S11304F023019091240150DE84E690E093DF0F9075
S11305000F900F900F900F900F90D4CF0CD03DC14F
S113051035D140F02CD130F021F45F3F19F00EC1F9
S1130520511167C111C142D198F39923C9F35523DD
S1130530B1F3951B550BBB27AA27621773078407D2
S113054038F09F5F5F4F220F331F441FAA1FA9F388
S113055033D00E2E3AF0E0E830D091505040E6957A
S1130560001CCAF729D0FE2F27D0660F771F881FDB
S1130570BB1F261737074807AB07B0E809F0BB0BCA
S1130580802DBF01FF2793585F4F2AF09E3F5105EE
S113059068F0D4C02EC15F3FECF3983EDCF386953F
S11305A077956795B795F7959F5FC9F7880F911D64
S11305B09695879597F90895E1E0660F771F881F50
S11305C0BB1F621773078407BA0720F0621B730B03
S11305D0840BBA0BEE1F88F7E095089504D0689455
S11305E0B11107C10895EAD088F09F5790F0B92F50
S11305F09927B751A0F0D1F0660F771F881F991F74
S11306001AF0BA95C9F712C0B13081F0F1D0B1E057
S11306100895EEC0672F782F8827B85F39F0B93F67
S1130620CCF3869577956795B395D9F73EF4909575
S11306308095709561957F4F8F4F9F4F089597FBDD
S11306400EF485D03EC0E89409C097FB3EF4909523
S11306508095709561957F4F8F4F9F4F9923A9F097
S1130660F92F96E9BB279395F69587957795679526
S1130670B795F111F8CFFAF4BB0F11F460FF1BC06A
S11306806F5F7F4F8F4F9F4F16C0882311F096E9FD
S113069011C0772321F09EE8872F762F05C06623AB
S11306A071F096E8862F70E060E02AF09A95660F64
S11306B0771F881FDAF7880F9695879597F908951D
S11306C0E894F92F96EBFF2381F012161306140613
S11306D0440B9395F6958795779567955795404084
S11306E0FF23B9F71BC099270895882351F4985024
S11306F0D2F7872B762F652F542F432F322F20E0EC
S1130700B1F3121613061406440B88233AF09A9593
S1130710440F551F661F771F881FCAF755234AF4D5
S1130720440F551F11F460FF04C06F5F7F4F8F4F5C
S11307309F4F880F9695879597F9089597F99F6726
S113074080E870E060E008959FEF80EC0895909554
S113075080957095609550954095309521953F4FC3
S11307604F4F5F4F6F4F7F4F8F4F9F4F0895002420
S11307700A941616170618060906089500240A9402
S113078012161306140605060895092E0394000C88
S113079011F4882352F0BB0F40F4BF2B11F460FF17
S11307A004C06F5F7F4F8F4F9F4F089557FD905840
S11307B0440F551F59F05F3F71F04795880F97FB21
S11307C0991F61F09F3F79F08795089512161306DB
S11307D01406551FF2CF4695F1DF08C0161617060A
S11307E01806991FF1CF869571056105089408953F
S11307F0E894BB2766277727CB0197F9089566D03D
S113080008F48FEF08950BD0C0CFB1DF28F0B6DF26
S113081018F0952309F092CF97CF1124EACFC6DFC1
S1130820A0F3959FD1F3950F50E0551F629FF001FF
S1130830729FBB27F00DB11D639FAA27F00DB11D58
S1130840AA1F649F6627B00DA11D661F829F2227E1
S1130850B00DA11D621F739FB00DA11D621F839F68
S1130860A00D611D221F749F3327A00D611D231F3E
S1130870849F600D211D822F762F6A2F11249F578C
S113088050408AF0E1F088234AF0EE0FFF1FBB1FAF
S1130890661F771F881F91505040A9F79E3F51054E
S11308A070F04CCFA6CF5F3FECF3983EDCF3869517
S11308B077956795B795F795E7959F5FC1F7FE2BF9
S11308C0880F911D9695879597F90895990F0008BB
S11308D0550FAA0BE0E8FEEF16161706E807F9070E
S11308E0C0F012161306E407F50798F0621B730BA9
S11308F0840B950B39F40A2661F0232B242B252B2A
S113090021F408950A2609F4A140A6958FEF811DCC
S1130910811D089515D0A59F900DB49F900DA49F9F
S1130920800D911D112408950024A7FD00942A0F21
S1130930301D401D501D601D701D801D901D0895AB
S1130940A29FB001B39FC001A39F700D811D11240C
S1130950911DB29F700D811D1124911D08950F9357
S11309601F93CF93DF938230910510F482E090E0DF
S1130970E0912701F091280120E030E0A0E0B0E010
S1130980309719F140815181028113814817590729
S1130990C8F08417950769F4109731F012960C93F8
S11309A0129713961C9327C00093270110932801D4
S11309B022C02115310519F04217530718F49A0182
S11309C0BD01EF01DF01F801DBCF21153105F9F09D
S11309D0281B390B2430310580F48A819B816115F1
S11309E0710521F0FB019383828304C09093280155
S11309F080932701FE01329644C0FE01E20FF31FEB
S1130A008193919322503109398328833AC02091EC
S1130A10250130912601232B41F4209102013091CC
S1130A200301309326012093250120910001309188
S1130A3001012115310541F42DB73EB74091040160
S1130A4050910501241B350BE0912501F0912601FD
S1130A50E217F307A0F42E1B3F0B2817390778F091
S1130A60AC014E5F5F4F2417350748F04E0F5F1FF0
S1130A7050932601409325018193919302C0E0E0B5
S1130A80F0E0CF01DF91CF911F910F910895CF93A3
S1130A90DF93009709F481C0FC013297138212821C
S1130AA0A0912701B0912801109781F42081318110
S1130AB0820F931F209125013091260128173907B1
S1130AC051F5F0932601E093250167C0ED0120E084
S1130AD030E0CE17DF0740F44A815B819E01411567
S1130AE05105F1F0EA01F5CFD383C28340815181EE
S1130AF0840F951FC817D90759F488819981840FE9
S1130B00951F0296918380838A819B81938382833C
S1130B102115310529F4F0932801E09327013DC004
S1130B20E901FB83EA8349915991C40FD51FEC175E
S1130B30FD0761F480819181840F951F0296E9017C
S1130B4099838883828193819B838A83E0E0F0E0A8
S1130B5012968D919C911397009719F0FD01DC0179
S1130B60F7CF8D919C9111979D012E5F3F4F820F7E
S1130B70931F20912501309126012817390769F424
S1130B80309729F4109228011092270102C0138291
S1130B901282B0932601A0932501DF91CF9108958D
S1130BA00F931F93CF93DF93CDB7DEB72E970FB676
S1130BB0F894DEBF0FBECDBF0D891E8986E08C83FD
S1130BC01A8309838FEF9FE79E838D83AE01475E6F
S1130BD05F4F6F89788DCE01019610D0EF81F88533
S1130BE0E00FF11F10822E960FB6F894DEBF0FBEF1
S1130BF0CDBFDF91CF911F910F9108952F923F9216
S1130C004F925F926F927F928F929F92AF92BF9218
S1130C10CF92DF92EF92FF920F931F93CF93DF93C4
S1130C20CDB7DEB72B970FB6F894DEBF0FBECDBF9E
S1130C306C017B018A01FC0117821682838181FF8A
S1130C40BFC1CE0101963C01F6019381F70193FDEA
S1130C50859193FF81917F01882309F4ADC1853289
S1130C6039F493FD859193FF81917F01853221F4BD
S1130C70B60190E0D6D1E8CF912C212C312CFFE1A4
S1130C80F315D8F08B3279F038F4803279F083326E
S1130C90A1F4232D20611DC08D3261F0803369F4ED
S1130CA0232D216016C0832D8260382EE32DE4604D
S1130CB03E2E2AC0F32DF8601DC037FC2DC020ED58
S1130CC0280F2A3040F08E32B9F436FC75C1232D3A
S1130CD02064322E19C036FE06C08AE0989E200D8C
S1130CE01124922E11C0EAE02E9E200D1124222EF2
S1130CF0F32DF0623F2E08C08C3621F4832D8068DA
S1130D00382E02C0883641F4F70193FD859193FF94
S1130D1081917F018111B3CF982F9F7D955493309A
S1130D2028F40C5F1F4F9FE399830DC0833631F085
S1130D30833771F0833509F055C020C0F8018081F4
S1130D4089830E5F1F4F88248394912C530112C012
S1130D502801F2E04F0E511CF801A080B18036FE4C
S1130D6003C0692D70E002C06FEF7FEFC5014ED163
S1130D704C018201F32DFF773F2E15C0280122E09C
S1130D80420E511CF801A080B18036FE03C0692DCB
S1130D9070E002C06FEF7FEFC5012DD14C01F32D40
S1130DA0F0683F2E820133FC19C0822D90E0881632
S1130DB09906A0F4B60180E290E033D12A94F5CFED
S1130DC0F50137FC859137FE81915F01B60190E012
S1130DD028D121102A9421E0821A910881149104C7
S1130DE079F7E1C0843611F0893639F5F80137FE18
S1130DF007C060817181828193810C5F1F4F08C09D
S1130E0060817181072E000C880B990B0E5F1F4FB8
S1130E10F32DFF763F2E97FF09C09095809570952E
S1130E2061957F4F8F4F9F4FF0683F2E2AE030E04F
S1130E30A30133D1882E861844C0853731F4232D7D
S1130E402F7EB22E2AE030E025C0932D997FB92E53
S1130E508F36C1F018F4883579F0AEC0803719F0B8
S1130E60883721F0A9C0E92FE061BE2EB4FE0DC081
S1130E70FB2DF460BF2E09C034FE0AC0292F266062
S1130E80B22E06C028E030E005C020E130E002C008
S1130E9020E132E0F801B7FE07C0608171818281F0
S1130EA093810C5F1F4F06C06081718180E090E0E8
S1130EB00E5F1F4FA301F1D0882E8618FB2DFF77FC
S1130EC03F2E36FE0DC0232D2E7FA22E891458F4FA
S1130ED034FE0BC032FC09C0832D8E7EA82E05C0C3
S1130EE0B82CA32C03C0B82C01C0B92CA4FE0FC08D
S1130EF0FE01E80DF11D8081803321F49A2D997E45
S1130F00A92E09C0A2FE06C0B394B39404C08A2DCE
S1130F10867809F0B394A3FC10C0A0FE06C0B214F6
S1130F2080F4280C922C9B180DC0B21458F4B6010E
S1130F3080E290E076D0B394F8CFB21418F42B1872
S1130F4002C0982C212CA4FE0FC0B60180E390E0CF
S1130F5068D0A2FE16C0A1FC03C088E790E002C0DE
S1130F6088E590E0B6010CC08A2D867851F0A1FE88
S1130F7002C08BE201C080E2A7FC8DE2B60190E0E2
S1130F8050D0891430F4B60180E390E04AD09A94AA
S1130F90F8CF8A94F301E80DF11D8081B60190E049
S1130FA040D08110F6CF222009F44ECEB60180E263
S1130FB090E037D02A94F7CFF6018681978102C05A
S1130FC08FEF9FEF2B960FB6F894DEBF0FBECDBF09
S1130FD0DF91CF911F910F91FF90EF90DF90CF9011
S1130FE0BF90AF909F908F907F906F905F904F9045
S1130FF03F902F900895FC010590615070400110BE
S1131000D8F7809590958E0F9F1F0895FC0161502D
S1131010704001900110D8F7809590958E0F9F1F16
S113102008950F931F93CF93DF93FB01238121FD39
S113103003C08FEF9FEF2CC022FF16C0468157815B
S1131040248135814217530744F4A081B1819D0165
S11310502F5F3F4F318320838C93268137812F5F0D
S11310603F4F3783268314C08B01EC01FB010084BE
S1131070F185E02D0995892BE1F6D80116968D911D
S11310809C911797019617969C938E931697CE0171
S1131090DF91CF911F910F910895FA01AA2728306B
S11310A051F1203181F1E8946F936E7F6E5F7F4F31
S11310B08F4F9F4FAF4FB1E03ED0B4E03CD0670FAD
S11310C0781F891F9A1FA11D680F791F8A1F911D00
S11310D0A11D6A0F711D811D911DA11D20D009F450
S11310E068943F912AE0269F11243019305D319392
S11310F0DEF6CF010895462F4770405D4193B3E07B
S11311000FD0C9F7F6CF462F4F70405D4A3318F021
S1131110495D31FD4052419302D0A9F7EACFB4E0D2
S1131120A6959795879577956795BA95C9F700978A
S11311306105710508959B01AC010A2E069457952B
S1131140479537952795BA95C9F7620F731F841F82
S10D1150951FA01D0895F894FFCF29
S10D115A00002901200025640000B4
S9030000FC
