S0120000556C747261536F6E69632E737265630E
S113000045C0000060C000005EC000005CC000008D
S11300105AC0000058C0000056C0000055C000007F
S11300206BC0000050C00000B7C000004CC000000E
S11300304AC0000048C0000046C00000D3C0000011
S113004042C0000040C000003EC000003CC00000B0
S11300503AC0000038C0000036C0000034C00000C0
S113006032C0000030C000002EC000002CC00000D0
S11300702AC0000028C0000026C0000024C00000E0
S113008022C0000020C000001EC0000011241FBEBA
S1130090CFEFD0E1DEBFCDBF21E0A6E0B1E001C0EB
S11300A01D92A531B207E1F711E0A0E0B1E0EEE363
S11300B0F8E000E00BBF02C007900D92A630B10734
S11300C0D9F7C5D0BAC39CCF1F920F920FB60F9227
S11300D011248F9314BC10920B0110920C011092F6
S11300E00D0110920E0185B5816085BD8F910F9031
S11300F00FBE0F901F9018951F920F920FB60F927C
S113010011240BB60F922F933F934F935F936F93EA
S11301107F938F939F93AF93BF93EF93FF9385B593
S1130120887F85BDE4B520910B0130910C0140918D
S11301300D0150910E01AFEFB0E045D26E0F711D6D
S1130140811D911D14BC10920B0110920C01109290
S11301500D0110920E0148D129E23CE349EE53E42B
S1130160ADD06093070170930801809309019093C7
S11301700A01FF91EF91BF91AF919F918F917F9170
S11301806F915F914F913F912F910F900BBE0F9004
S11301900FBE0F901F9018951F920F920FB60F92DB
S11301A011248F939F93AF93BF9380910B019091F0
S11301B00C01A0910D01B0910E010196A11DB11D7C
S11301C080930B0190930C01A0930D01B0930E0149
S11301D014BCBF91AF919F918F910F900FBE0F9060
S11301E01F9018951F920F920FB60F9211248F93A0
S11301F080910601882329F081E088BB10920601D2
S113020004C018BA81E0809306018F910F900FBE4D
S11302100F901F90189520E030E008C0EFECF7E055
S11302203197F1F700C000002F5F3F4F28173907BF
S1130230ACF3089587B7806487BF15BC08958CE438
S113024083BF87B7826087BF8FEF87BB08958FEF27
S113025090E0D2D19093100180930F0181E08ABB8A
S11302608AE090E0D8DF8AB7806B8ABF89B7806C58
S113027089BFE0DFE4DF789488EC90E0CCDF81E0B4
S11302808BBB8AE18A95F1F700C01BBAC0E0D0E0CD
S113029011C0BE010D2E000C880B990BA5D020E0D7
S11302A030E04AEF51EC2CD171D062BF84EF91E081
S11302B0B2DF2196CE31D10564F3E1CF0CD0E6C094
S11302C0DED040F0D5D030F021F45F3F19F0C7C044
S11302D0511110C1CAC0EBD098F39923C9F3552327
S11302E0B1F3951B550BBB27AA2762177307840725
S11302F038F09F5F5F4F220F331F441FAA1FA9F3DB
S113030033D00E2E3AF0E0E830D091505040E695CC
S1130310001CCAF729D0FE2F27D0660F771F881F2D
S1130320BB1F261737074807AB07B0E809F0BB0B1C
S1130330802DBF01FF2793585F4F2AF09E3F510540
S113034068F08DC0D7C05F3FECF3983EDCF3869530
S113035077956795B795F7959F5FC9F7880F911DB6
S11303609695879597F90895E1E0660F771F881FA2
S1130370BB1F621773078407BA0720F0621B730B55
S1130380840BBA0BEE1F88F7E095089598D088F097
S11303909F5790F0B92F9927B751A0F0D1F0660F6D
S11303A0771F881F991F1AF0BA95C9F712C0B13088
S11303B081F09FD0B1E008959CC0672F782F8827E3
S11303C0B85F39F0B93FCCF3869577956795B395C7
S11303D0D9F73EF490958095709561957F4F8F4F36
S11303E09F4F0895E89409C097FB3EF4909580953B
S11303F0709561957F4F8F4F9F4F9923A9F0F92FE7
S113040096E9BB279395F695879577956795B79564
S1130410F111F8CFFAF4BB0F11F460FF1BC06F5F4A
S11304207F4F8F4F9F4F16C0882311F096E911C05C
S1130430772321F09EE8872F762F05C0662371F07D
S113044096E8862F70E060E02AF09A95660F771F91
S1130450881FDAF7880F9695879597F9089597F985
S11304609F6780E870E060E008959FEF80EC089556
S113047000240A941616170618060906089500247F
S11304800A9412161306140605060895092E0394F9
S1130490000C11F4882352F0BB0F40F4BF2B11F46D
S11304A060FF04C06F5F7F4F8F4F9F4F089557FDCC
S11304B09058440F551F59F05F3F71F04795880FCE
S11304C097FB991F61F09F3F79F087950895121665
S11304D013061406551FF2CF4695F1DF08C0161611
S11304E017061806991FF1CF8695710561050894C2
S11304F00895E894BB2766277727CB0197F90895D9
S11305000BD0C4CFB5DF28F0BADF18F0952309F07B
S1130510A6CFABCF1124EECFCADFA0F3959FD1F3C2
S1130520950F50E0551F629FF001729FBB27F00D9D
S1130530B11D639FAA27F00DB11DAA1F649F6627F2
S1130540B00DA11D661F829F2227B00DA11D621F41
S1130550739FB00DA11D621F839FA00D611D221FFB
S1130560749F3327A00D611D231F849F600D211DDF
S1130570822F762F6A2F11249F5750408AF0E1F082
S113058088234AF0EE0FFF1FBB1F661F771F881FCB
S113059091505040A9F79E3F510570F060CFAACF0B
S11305A05F3FECF3983EDCF3869577956795B795B6
S11305B0F795E7959F5FC1F7FE2B880F911D9695E0
S11305C0879597F9089509D0A59F900DB49F900D34
S11305D0A49F800D911D11240895A29FB001B39F83
S11305E0C001A39F700D811D1124911DB29F700D38
S11305F0811D1124911D08950F931F93CF93DF93B1
S11306008230910510F482E090E0E0911301F091C2
S1130610140120E030E0A0E0B0E0309719F140810F
S113062051810281138148175907C8F0841795072F
S113063069F4109731F012960C93129713961C9349
S113064027C0009313011093140122C02115310512
S113065019F04217530718F49A01BD01EF01DF01A5
S1130660F801DBCF21153105F9F0281B390B2430B3
S1130670310580F48A819B816115710521F0FB01AC
S11306809383828304C09093140180931301FE0129
S1130690329644C0FE01E20FF31F819391932250DE
S11306A03109398328833AC0209111013091120114
S11306B0232B41F420910201309103013093120164
S11306C02093110120910001309101012115310580
S11306D041F42DB73EB74091040150910501241B0C
S11306E0350BE0911101F0911201E217F307A0F428
S11306F02E1B3F0B2817390778F0AC014E5F5F4F74
S11307002417350748F04E0F5F1F50931201409392
S113071011018193919302C0E0E0F0E0CF01DF91F9
S1130720CF911F910F910895CF93DF93009709F410
S113073081C0FC01329713821282A0911301B091FF
S11307401401109781F420813181820F931F20912D
S11307501101309112012817390751F5F093120154
S1130760E093110167C0ED0120E030E0CE17DF0710
S113077040F44A815B819E0141155105F1F0EA0183
S1130780F5CFD383C28340815181840F951FC8174D
S1130790D90759F488819981840F951F0296918312
S11307A080838A819B81938382832115310529F477
S11307B0F0931401E09313013DC0E901FB83EA8344
S11307C049915991C40FD51FEC17FD0761F480813D
S11307D09181840F951F0296E90199838883828110
S11307E093819B838A83E0E0F0E012968D919C9143
S11307F01397009719F0FD01DC01F7CF8D919C91BF
S113080011979D012E5F3F4F820F931F209111017D
S1130810309112012817390769F4309729F410929E
S113082014011092130102C013821282B0931201B8
S1110830A0931101DF91CF910895F894FFCFAA
S109083E0000150120007A
S9030000FC
