S0120000556C747261536F6E69632E737265630E
S113000045C0000053C0000051C000004FC00000B4
S11300104DC000004BC0000049C0000047C00000B4
S113002045C0000043C0000041C000003FC00000C4
S11300303DC000003BC0000065C0000037C00000A8
S113004035C0000033C0000031C000002FC00000E4
S11300502DC000002BC0000029C0000027C00000F4
S113006025C0000023C0000021C000001FC0000004
S11300701DC000001BC0000019C0000017C0000014
S113008015C0000013C0000011C0000011241FBEE1
S1130090CFEFD0E1DEBFCDBF21E0A0E0B1E001C0F1
S11300A01D92A230B207E1F753D06EC0A9CF85B339
S11300B0886085BB8FEC97E00197F1F700C00000E2
S11300C085B3877F85BB8FEC97E00197F1F700C07C
S11300D000000895CF938FEF84BB15BAC0E2C5BB6F
S11300E0E6DFC5BBE4DF80E885BBE1DF15BADFDF0F
S11300F080EF85BBDCDF15BADADF80E685BBD7DFAE
S1130100CF9108951F920F920FB60F9211248F93DF
S11301109F938091000190910101019690930101B8
S1130120809300019F918F910F900FBE0F901F90AD
S1130130189520E030E008C0EFECF7E03197F1F7D4
S113014000C000002F5F3F4F28173907ACF3089514
S113015081E08ABB8FEF82BB87BBBCDF789484E0ED
S113016087BF1FBC18BA8BB381608BBB81E090E062
S1130170E0DF8BB38E7F8BBB06B605FEFDCF8FEF22
S10F018085BB80E090E00895F894FFCF68
S9030000FC
