S01200004F7064726163687442312E737265636A
S113000045C000004BC0000049C0000047C00000CC
S113001045C0000043C0000041C000003FC00000D4
S11300203DC000003BC0000039C0000037C00000E4
S113003035C0000033C0000031C000002FC00000F4
S11300402DC000002BC0000029C0000027C0000004
S113005025C0000023C0000021C000001FC0000014
S11300601DC000001BC0000019C0000017C0000024
S113007015C0000013C0000011C000000FC0000034
S11300800DC000000BC0000009C0000011241FBEF9
S1130090CFEFD0E1DEBFCDBF67D08DC0B1CF20E0C0
S11300A030E008C0EFECF7E03197F1F700C0000052
S11300B02F5F3F4F28173907ACF308958FEF87BBA5
S11300C087B3877F87BB88B3816088BB82E58DB99E
S11300D008958FB9779BFECF089598B321E030E05F
S11300E002C0220F331F8A95E2F72095292328BBEB
S11300F0089598B321E030E002C0220F331F8A959F
S1130100E2F7292B28BB089580E0E7DF89E0E1DFEF
S11301108FEFDFDF80E0EDDF80E0DFDF8AE0D9DF33
S11301208FE0D7DF80E0E5DF80E0D7DF8BE0D1DF51
S113013083E0CFDF80E0DDDF80E0CFDF8CE0C9DF6C
S113014081E0C7DF80E0D5CF0895CF93DF93D82F28
S1130150C62F80E0C2DF8D2FBCDF8C2FBADF80E09A
S1130160C8DFDF91CF910895CF9381E087BBA6DFED
S1130170CBDFC1E009C080E0B0DF8C2FAADF80E0D4
S1130180A8DF80E0B6DFCF5FC530A8F388EE93E048
S113019086DFC1E007C06C2F8C2FD7DF88EE93E099
S11301A07EDFCF5FC530B8F388EE93E078DF81E07F
S10D01B090E0CF910895F894FFCF7A
S9030000FC
