S01200004F7064726163687442352E7372656366
S113000045C0000058C0000056C0000054C00000A5
S113001052C0000050C000004EC000004CC00000A0
S11300204AC0000048C0000046C0000044C00000B0
S113003042C0000040C000003EC000003CC00000C0
S11300403AC0000038C0000036C0000034C00000D0
S113005032C0000030C000002EC000002CC00000E0
S11300602AC0000028C0000026C0000024C00000F0
S113007022C0000020C000001EC000001CC0000000
S11300801AC0000018C0000016C0000011241FBED2
S1130090CFEFD0E1DEBFCDBF11E0A0E0B1E0ECEBEB
S11300A0F1E000E00BBF02C007900D92A630B1074B
S11300B0D9F775D081C0A4CF85B3886085BB8FEC98
S11300C097E00197F1F700C0000085B3877F85BBF7
S11300D08FEC97E00197F1F700C000000895CF93EB
S11300E0C82F85BB85B3846085BBE6DFC295C07F1E
S11300F0C5BB85B3846085BBDFDFCF910895CF9303
S1130100DF93EC0102C0EBDF219688818111FBCFE4
S1130110DF91CF910895CF938FEF84BB15BAC0E2DE
S1130120C5BBCADFC5BBC8DF80E885BBC5DF15BA60
S1130130C3DF80EF85BBC0DF15BABEDF80E685BBB9
S1130140BBDFCF91089515BAB7DF81E085BBB4DF7B
S113015015BAB2DF82E085BBAFCF0895982F907FA8
S113016095BB95B3986095BBEFECF7E03197F1F749
S113017000C0000094E095BBF0E18F9FC001112402
S113018085BB85B3886085BB8FEC97E00197F1F759
S113019000C0000015BA08958058E0CF08958FEF8D
S11301A081BBB9DFD0DF84E090E0F6DF80E091E04E
S10F01B0A6DF80E090E00895F894FFCFF3
S10901BC44617669640051
S9030000FC
