S01200004F7064726163687442312E737265636A
S113000045C0000060C000005EC000005CC000008D
S11300105AC0000058C0000056C0000054C0000080
S113002052C0000050C00000B0C000004CC000002E
S11300304AC0000048C0000046C0000044C00000A0
S113004042C0000040C000003EC000003CC00000B0
S11300503AC0000038C0000036C0000034C00000C0
S113006032C0000030C000002EC000002CC00000D0
S11300702AC0000028C0000026C0000024C00000E0
S113008022C0000020C000001EC0000011241FBEBA
S1130090CFEFD0E1DEBFCDBF11E0A0E0B1E0E4E7F7
S11300A0FAE000E00BBF02C007900D92AC30B1073C
S11300B0D9F721E0ACE0B1E001C01D92A231B20752
S11300C0E1F7C6D0D5C49CCF85B3886085BB8FECDF
S11300D097E00197F1F700C0000085B3877F85BBE7
S11300E08FEC97E00197F1F700C000000895CF93DB
S11300F0C82F85BB85B3846085BBE6DFC295C07F0E
S1130100C5BB85B3846085BBDFDFCF910895CF93F2
S1130110DF93EC0102C0EBDF219688818111FBCFD4
S1130120DF91CF910895CF938FEF84BB15BAC0E2CE
S1130130C5BBCADFC5BBC8DF80E885BBC5DF15BA50
S1130140C3DF80EF85BBC0DF15BABEDF80E685BBA9
S1130150BBDFCF91089515BAB7DF81E085BBB4DF6B
S113016015BAB2DF82E085BBAFCF089520E030E05E
S113017008C0EFECF7E03197F1F700C000002F5F03
S11301803F4F28173907ACF308951F920F920FB60B
S11301900F9211240BB60F922F933F934F935F93BB
S11301A06F937F938F939F93AF93BF93CF93DF937B
S11301B0EF93FF93809106019091070184BD809194
S11301C00C0190910D01019690930D0180930C0107
S11301D0C2DF83E090E050D0D82FC92F80910C016A
S11301E090910D019F938F9388E091E09F938F935B
S11301F0CF93DF9362D18D2F9C2F89DF8D2F9C2F7E
S1130200D3D00F900F900F900F900F900F90FF91FD
S1130210EF91DF91CF91BF91AF919F918F917F919A
S11302206F915F914F913F912F910F900BBE0F9063
S11302300FBE0F901F9018958091060190910701B1
S113024084BD87B7806487BF789487E085BD0895AF
S113025081B38F7781BB8FEF8ABB87BB64DF7BDF82
S1130260EBDF84B58BBB80910C0190910D0188BBB1
S11302708AE090E07BDFF5CF0F931F93CF93DF935A
S11302808230910510F482E090E0E0911001F09149
S1130290110120E030E0A0E0B0E0309719F1408196
S11302A051810281138148175907C8F084179507B3
S11302B069F4109731F012960C93129713961C93CD
S11302C027C0009310011093110122C0211531059C
S11302D019F04217530718F49A01BD01EF01DF0129
S11302E0F801DBCF21153105F9F0281B390B243037
S11302F0310580F48A819B816115710521F0FB0130
S11303009383828304C09093110180931001FE01B2
S1130310329644C0FE01E20FF31F81939193225061
S11303203109398328833AC020910E0130910F019D
S1130330232B41F4209102013091030130930F01EA
S113034020930E0120910001309101012115310506
S113035041F42DB73EB74091040150910501241B8F
S1130360350BE0910E01F0910F01E217F307A0F4B1
S11303702E1B3F0B2817390778F0AC014E5F5F4FF7
S11303802417350748F04E0F5F1F50930F01409319
S11303900E018193919302C0E0E0F0E0CF01DF9180
S11303A0CF911F910F910895CF93DF93009709F494
S11303B081C0FC01329713821282A0911001B09186
S11303C01101109781F420813181820F931F2091B4
S11303D00E0130910F012817390751F5F0930F01E1
S11303E0E0930E0167C0ED0120E030E0CE17DF0797
S11303F040F44A815B819E0141155105F1F0EA0107
S1130400F5CFD383C28340815181840F951FC817D0
S1130410D90759F488819981840F951F0296918395
S113042080838A819B81938382832115310529F4FA
S1130430F0931101E09310013DC0E901FB83EA83CD
S113044049915991C40FD51FEC17FD0761F48081C0
S11304509181840F951F0296E90199838883828193
S113046093819B838A83E0E0F0E012968D919C91C6
S11304701397009719F0FD01DC01F7CF8D919C9142
S113048011979D012E5F3F4F820F931F20910E0104
S113049030910F012817390769F4309729F4109225
S11304A011011092100102C013821282B0930F0145
S11304B0A0930E01DF91CF9108950F931F93CF93D3
S11304C0DF93CDB7DEB72E970FB6F894DEBF0FBE1D
S11304D0CDBF0D891E8986E08C831A8309838FEF33
S11304E09FE79E838D83AE01475E5F4F6F89788D52
S11304F0CE01019610D0EF81F885E00FF11F108234
S11305002E960FB6F894DEBF0FBECDBFDF91CF910C
S11305101F910F9108952F923F924F925F926F9285
S11305207F928F929F92AF92BF92CF92DF92EF927F
S1130530FF920F931F93CF93DF93CDB7DEB72B9723
S11305400FB6F894DEBF0FBECDBF6C017B018A01EC
S1130550FC0117821682838181FFBFC1CE010196FF
S11305603C01F6019381F70193FD859193FF8191FD
S11305707F01882309F4ADC1853239F493FD859157
S113058093FF81917F01853221F4B60190E0D6D1A9
S1130590E8CF912C212C312CFFE1F315D8F08B32CC
S11305A079F038F4803279F08332A1F4232D20617C
S11305B01DC08D3261F0803369F4232D216016C093
S11305C0832D8260382EE32DE4603E2E2AC0F32D65
S11305D0F8601DC037FC2DC020ED280F2A3040F0F4
S11305E08E32B9F436FC75C1232D2064322E19C025
S11305F036FE06C08AE0989E200D1124922E11C06A
S1130600EAE02E9E200D1124222EF32DF0623F2EBF
S113061008C08C3621F4832D8068382E02C08836B9
S113062041F4F70193FD859193FF81917F0181113D
S1130630B3CF982F9F7D9554933028F40C5F1F4FB0
S11306409FE399830DC0833631F0833771F083358E
S113065009F055C020C0F801808189830E5F1F4FC7
S113066088248394912C530112C02801F2E04F0E88
S1130670511CF801A080B18036FE03C0692D70E0E2
S113068002C06FEF7FEFC5014ED14C018201F32D03
S1130690FF773F2E15C0280122E0420E511CF801BD
S11306A0A080B18036FE03C0692D70E002C06FEFF8
S11306B07FEFC5012DD14C01F32DF0683F2E82014F
S11306C033FC19C0822D90E088169906A0F4B60177
S11306D080E290E033D12A94F5CFF50137FC85917F
S11306E037FE81915F01B60190E028D121102A9450
S11306F021E0821A91088114910479F7E1C08436CB
S113070011F0893639F5F80137FE07C0608171812F
S1130710828193810C5F1F4F08C060817181072E15
S1130720000C880B990B0E5F1F4FF32DFF763F2EA5
S113073097FF09C090958095709561957F4F8F4F75
S11307409F4FF0683F2E2AE030E0A30133D1882E7A
S1130750861844C0853731F4232D2F7EB22E2AE02B
S113076030E025C0932D997FB92E8F36C1F018F44F
S1130770883579F0AEC0803719F0883721F0A9C0E8
S1130780E92FE061BE2EB4FE0DC0FB2DF460BF2E38
S113079009C034FE0AC0292F2660B22E06C028E004
S11307A030E005C020E130E002C020E132E0F80191
S11307B0B7FE07C060817181828193810C5F1F4FF6
S11307C006C06081718180E090E00E5F1F4FA3013D
S11307D0F1D0882E8618FB2DFF773F2E36FE0DC0F4
S11307E0232D2E7FA22E891458F434FE0BC032FC24
S11307F009C0832D8E7EA82E05C0B82CA32C03C05F
S1130800B82C01C0B92CA4FE0FC0FE01E80DF11DE7
S11308108081803321F49A2D997EA92E09C0A2FEED
S113082006C0B394B39404C08A2D867809F0B394B7
S1130830A3FC10C0A0FE06C0B21480F4280C922CB5
S11308409B180DC0B21458F4B60180E290E076D043
S1130850B394F8CFB21418F42B1802C0982C212C9E
S1130860A4FE0FC0B60180E390E068D0A2FE16C0DB
S1130870A1FC03C088E790E002C088E590E0B601DF
S11308800CC08A2D867851F0A1FE02C08BE201C013
S113089080E2A7FC8DE2B60190E050D0891430F4D8
S11308A0B60180E390E04AD09A94F8CF8A94F30199
S11308B0E80DF11D8081B60190E040D08110F6CFA3
S11308C0222009F44ECEB60180E290E037D02A947B
S11308D0F7CFF6018681978102C08FEF9FEF2B96A9
S11308E00FB6F894DEBF0FBECDBFDF91CF911F913D
S11308F00F91FF90EF90DF90CF90BF90AF909F90BB
S11309008F907F906F905F904F903F902F900895BD
S1130910FC010590615070400110D8F780959095C6
S11309208E0F9F1F0895FC016150704001900110CB
S1130930D8F7809590958E0F9F1F08950F931F935E
S1130940CF93DF93FB01238121FD03C08FEF9FEF42
S11309502CC022FF16C0468157812481358142175D
S1130960530744F4A081B1819D012F5F3F4F318330
S113097020838C93268137812F5F3F4F37832683D3
S113098014C08B01EC01FB010084F185E02D099575
S1130990892BE1F6D80116968D919C9117970196B3
S11309A017969C938E931697CE01DF91CF911F914A
S11309B00F910895FA01AA27283051F1203181F1CD
S11309C0E8946F936E7F6E5F7F4F8F4F9F4FAF4F53
S11309D0B1E03ED0B4E03CD0670F781F891F9A1F66
S11309E0A11D680F791F8A1F911DA11D6A0F711D1A
S11309F0811D911DA11D20D009F468943F912AE026
S1130A00269F11243019305D3193DEF6CF0108950D
S1130A10462F4770405D4193B3E00FD0C9F7F6CF3E
S1130A20462F4F70405D4A3318F0495D31FD405206
S1130A30419302D0A9F7EACFB4E0A695979587959C
S1130A4077956795BA95C9F700976105710508957B
S1130A509B01AC010A2E0694579547953795279527
S1130A60BA95C9F7620F731F841F951FA01D0895BF
S1070A70F894FFCF24
S10F0A74000012012000FFFF25640000B8
S9030000FC
