S01200004F7064726163687442322E7372656369
S113000045C0000053C0000051C000004FC00000B4
S11300104DC000004BC0000049C0000047C00000B4
S113002045C000005CC0000041C000003FC00000AB
S11300303DC000003BC0000039C0000037C00000D4
S113004035C0000033C0000031C000002FC00000E4
S11300502DC000002BC0000029C0000027C00000F4
S113006025C0000023C0000021C000001FC0000004
S11300701DC000001BC0000019C0000017C0000014
S113008015C0000013C0000011C0000011241FBEE1
S1130090CFEFD0E1DEBFCDBF21E0A0E0B1E001C0F1
S11300A01D92A830B207E1F74DD05FC0A9CF20E080
S11300B030E008C0EFECF7E03197F1F700C0000042
S11300C02F5F3F4F28173907ACF3089588EF84BD9D
S11300D087B7806887BF78948DE085BD08951F92A7
S11300E00F920FB60F9211248F939F938091020168
S11300F090910301019690930301809302018091F2
S1130100000190910101892B51F012BA80910601EE
S1130110819584BD10920101109200010CC080E809
S113012082BB80910401819584BD81E090E090932D
S11301300101809300019F918F910F900FBE0F904A
S11301401F90189585E790E0909305018093040132
S113015083EC90E090930701809306018FEF81BBBD
S1110160B5DF8AE090E0A3DFFCCFF894FFCF78
S9030000FC
